:0400000000FA000002
:040001000F3BFD9420
:040002000039C3CC32
:0400030000697C759F
:0400040000FA0000FE
:040005000F39BD9F53
:040006000040C3C52E
:04000700005F7C63B7
:0400080000FA0000FA
:040009000F333DC2B2
:04000A00005583AB6F
:04000B000040BC39BC
:04000C0000FA0000F6
:04000D000F297DFE3C
:04000E0000764370C5
:04000F00000B7C194D
:0400100000FA0000F2
:040011000F1DBE57AA
:04001200009F8301C7
:040013000FC13C38A5
:0400140000FA0000EE
:040015000F123ECDBB
:0400160000CAC24713
:040017000F6BBCDBD4
:0400180000FA0000EA
:040019000F093F622A
:04001A0000ED81373D
:04001B000F21BE37BC
:04001C0000FA0000E6
:04001D000F060014B6
:04001E0000F9FFD70F
:04001F000F06403D4B
:0400200000FA0000E2
:040021000F0C00DCE4
:0400220000E1BE50EB
:040023000F3BC26B62
:0400240000FA0000DE
:040025000F1E81B079
:04002600009C7CF3CB
:040027000FC743CDEF
:0400280000FA0000DA
:040029000F3F827E85
:04002A00002E3C293F
:04002B000079436AAB
:04002C0000FA0000D6
:04002D000F6FC3305E
:04002E000FAC7C5146
:04002F0000F0810D4F
:0400300000FA0000D2
:040031000FADC3B09C
:040032000F3BFD94EF
:0400330000D2FDE614
:0400340000FA0000CE
:040035000FF603E7D8
:040036000F06FFB101
:04003700001DBC1FCD
:0400380000FA0000CA
:04003900004203C4BA
:04003A000F28C1FECC
:04003B000F4C3D49E0
:04003C0000FA0000C6
:04003D000089C34132
:04003E000F9E439836
:04003F000F0A00B6EE
:0400400000FA0000C2
:0400410000C502668E
:04004200003D43C971
:040043000F9B439339
:0400440000FA0000BE
:0400450000EC414644
:0400460000C4C268C8
:040047000087C34724
:0400480000FA0000BA
:0400490000FA0000B9
:04004A0000FA0000B8
:04004B0000FA0000B7
:04004C0000FA0000B6
:04004D0000EC7EB98C
:04004E0000C4FD9756
:04004F000087FCB872
:0400500000FA0000B2
:0400510000C53D9910
:04005200003D7C36BB
:040053000F9B7C6C17
:0400540000FA0000AE
:040055000089FCBE64
:040056000F9E7C6716
:040057000F0A3F4904
:0400580000FA0000AA
:0400590000423C3BEA
:04005A000F28FE016C
:04005B000F4C02B68E
:04005C0000FA0000A6
:04005D000FF63C1846
:04005E000F06C04E7B
:04005F00001D83E01D
:0400600000FA0000A2
:040061000FADFC4F94
:040062000F3BC26B23
:0400630000D2C219EC
:0400640000FA00009E
:040065000F6FFCCF4E
:040066000FAC43AEEA
:0400670000F0BEF2F5
:0400680000FA00009A
:040069000F3FBD8107
:04006A00002E03D68B
:04006B0000797C9507
:04006C0000FA000096
:04006D000F1EBE4F55
:04006E00009C430CA3
:04006F000FC77C3209
:0400700000FA000092
:040071000F0C3F230E
:0400720000E181AF79
:040073000F3BFD94AE
:0400740000FA00008E
:040075000F063FEB48
:0400760000F9C028A5
:040077000F067FC22F
:0400780000FA00008A
:040079000F09009DCE
:04007A0000EDBEC80F
:04007B000F2181C808
:04007C0000FA000086
:04007D000F1201322B
:04007E0000CAFDB8FF
:04007F000F6B83245C
:0400800000FA000082
:040081000F1D81A826
:04008200009FBCFE21
:040083000FC103C7DF
:0400840000FA00007E
:040085000F294201FC
:0400860000767C8FF5
:04008700000B43E641
:0400880000FA00007A
:040089000F33023DF2
:04008A000055BC540D
:04008B00004083C6E8
:04008C0000FA000076
:04008D000F39826045
:04008E000040FC3AF8
:04008F00005F439C2F
:0400900000FA000072
:040091000F3BC26BF4
:040092000039FC3302
:040093000069438A33
:00000001FF
